:020000040800F2
:10C00000FCFF0120692B04087DA603087FA6030816
:10C0100081A6030883A6030885A603080000000084
:10C02000000000000000000000000000C10D040836
:10C0300087A6030800000000510E0408530B0408F3
:10C04000B92B0408B92B0408B92B0408B92B040830
:10C05000B92B0408B92B040889A603088FA6030886
:10C0600095A60308B92B0408B92B04089DA603085C
:10C07000B92B0408B92B0408B92B0408B92B040800
:10C08000A9A60308B92B0408B92B0408B92B040886
:10C09000B92B0408B92B0408B92B0408B92B0408E0
:10C0A000B92B0408B92B0408B92B0408B92B0408D0
:10C0B000B92B0408B92B0408B92B0408B92B0408C0
:10C0C000B92B0408B92B0408B92B0408B92B0408B0
:10C0D000B92B0408B5A60308B92B0408B92B04082A
:10C0E000C1A60308B92B0408B92B0408B92B04080E
:10C0F000B92B0408C9A60308B92B0408B92B0408F6
:10C10000B92B0408B92B0408B92B0408B92B04086F
:10C11000B92B0408B92B0408D5A60308B92B0408C9
:10C12000B92B0408F5A6030801A70308B92B0408D6
:10C130000DA703080000000000000000B92B040850
:10C14000B92B0408B92B0408B92B040819A7030854
:10C15000B92B0408B92B0408B92B0408B92B04081F
:10C16000B92B0408B92B0408B92B0408B92B04080F
:10C17000B92B0408B92B04080000000000000000DF
:08C18000B92B0408B92B0408D7
:10C1900010F8012B11F8013B012A28BF9A42F7D071
:10C1A000D01A7047000000000000000000000000EE
:10C1B00001F0FF01102A2BDB10F0070F08D010F858
:10C1C000013B013A8B422DD010F0070F42B3F6D15C
:10C1D000F0B441EA012141EA014122F007047FF075
:10C1E00000070023F0E80256083C85EA010586EACC
:10C1F000010685FA47F5A3FA87F586FA47F6A5FA08
:10C2000087F68EB9EED1F0BC01F0FF0102F0070213
:10C2100032B110F8013B013A83EA010313B1F8D1BE
:10C220000020704701387047002D06BF354603389F
:10C23000073815F0010F07D1013015F4807F02BFD8
:10C24000013015F4C03F0130F0BC0138704700BF29
:10C25000034613F8012B002AFBD1181A0138704746
:10C2600081F0004102E000BF83F0004330B54FEAA7
:10C2700041044FEA430594EA050F08BF90EA020F14
:10C280001FBF54EA000C55EA020C7FEA645C7FEAA7
:10C29000655C00F0E2804FEA5454D4EB5555B8BFCA
:10C2A0006D420CDD2C4480EA020281EA030382EA3B
:10C2B000000083EA010180EA020281EA0303362DCD
:10C2C00088BF30BD11F0004F4FEA01314FF4801CA0
:10C2D0004CEA113102D0404261EB410113F0004FB2
:10C2E0004FEA03334CEA133302D0524263EB430369
:10C2F00094EA050F00F0A780A4F10104D5F1200E07
:10C300000DDB02FA0EFC22FA05F2801841F1000161
:10C3100003FA0EF2801843FA05F359410EE0A5F135
:10C3200020050EF1200E012A03FA0EFC28BF4CF066
:10C33000020C43FA05F3C01851EBE37101F000451C
:10C3400007D54FF0000EDCF1000C7EEB00006EEB29
:10C350000101B1F5801F1BD3B1F5001F0CD34908B3
:10C360005FEA30004FEA3C0C04F101044FEA44520A
:10C3700012F5800F80F09A80BCF1004F08BF5FEA91
:10C38000500C50F1000041EB045141EA050130BD71
:10C390005FEA4C0C404141EB0101013C28BFB1F583
:10C3A000801FE9D291F0000F04BF01460020B1FACE
:10C3B00081F308BF2033A3F10B03B3F120020CDAA1
:10C3C0000C3208DD02F1140CC2F10C0201FA0CF07F
:10C3D00021FA02F10CE002F11402D8BFC2F1200CE4
:10C3E00001FA02F120FA0CFCDCBF41EA0C0190409A
:10C3F000E41AA2BF01EB0451294330BD6FEA0404E3
:10C400001F3C1CDA0C340EDC04F11404C4F12002CD
:10C4100020FA04F001FA02F340EA030021FA04F3DF
:10C4200045EA030130BDC4F10C04C4F1200220FA36
:10C4300002F001FA04F340EA0300294630BD21FA74
:10C4400004F0294630BD94F0000F83F4801306BF3A
:10C4500081F480110134013D4EE77FEA645C18BF2E
:10C460007FEA655C29D094EA050F08BF90EA020FC5
:10C4700005D054EA000C04BF1946104630BD91EABD
:10C48000030F1EBF0021002030BD5FEA545C05D1C0
:10C490004000494128BF41F0004130BD14F58004FF
:10C4A0003CBF01F5801130BD01F0004545F0FE4173
:10C4B00041F470014FF0000030BD7FEA645C1ABFA8
:10C4C000194610467FEA655C1CBF0B46024650EADF
:10C4D000013406BF52EA033591EA030F41F400210B
:10C4E00030BD00BF90F0000F04BF0021704730B591
:10C4F0004FF4806404F132044FF000054FF0000166
:10C5000050E700BF90F0000F04BF0021704730B526
:10C510004FF4806404F1320410F0004548BF4042FB
:10C520004FF000013EE700BF42004FEAE2014FEA50
:10C5300031014FEA02701FBF12F07F4393F07F4F2B
:10C5400081F06051704732F07F4208BF704793F02E
:10C550007F4F04BF41F40021704730B54FF4607441
:10C5600001F0004521F000411CE700BF50EA010244
:10C5700008BF704730B54FF000050AE050EA0102ED
:10C5800008BF704730B511F0004502D5404261EB5D
:10C5900041014FF4806404F132045FEA915C3FF49E
:10C5A000D8AE4FF003025FEADC0C18BF03325FEA3B
:10C5B000DC0C18BF033202EBDC02C2F1200300FAEC
:10C5C00003FC20FA02F001FA03FE40EA0E0021FA11
:10C5D00002F11444BDE600BF70B54FF0FF0C4CF4FF
:10C5E000E06C1CEA11541DBF1CEA135594EA0C0FB1
:10C5F00095EA0C0F00F0DEF82C4481EA030621EAEC
:10C600004C5123EA4C5350EA013518BF52EA033526
:10C6100041F4801143F4801338D0A0FB02CE4FF0D8
:10C620000005E1FB02E506F00042E0FB03E54FF008
:10C630000006E1FB03569CF0000F18BF4EF0010E00
:10C64000A4F1FF04B6F5007F64F5407404D25FEAFC
:10C650004E0E6D4146EB060642EAC62141EA5551AF
:10C660004FEAC52040EA5E504FEACE2EB4F1FD0CF1
:10C6700088BFBCF5E06F1ED8BEF1004F08BF5FEA6F
:10C68000500E50F1000041EB045170BD06F0004621
:10C6900046EA010140EA020081EA0301B4EB5C04CE
:10C6A000C2BFD4EB0C0541EA045170BD41F48011C6
:10C6B0004FF0000E013C00F3AB8014F1360FDEBFEB
:10C6C000002001F0004170BDC4F10004203C35DAC7
:10C6D0000C341BDC04F11404C4F1200500FA05F34A
:10C6E00020FA04F001FA05F240EA020001F00042EB
:10C6F00021F0004110EBD37021FA04F642EB060161
:10C700005EEA430E08BF20EAD37070BDC4F10C048A
:10C71000C4F1200500FA04F320FA05F001FA04F24E
:10C7200040EA020001F0004110EBD37041F100013A
:10C730005EEA430E08BF20EAD37070BDC4F1200545
:10C7400000FA05F24EEA020E20FA04F301FA05F2AD
:10C7500043EA020321FA04F001F0004121FA04F255
:10C7600020EA020000EBD3705EEA430E08BF20EA25
:10C77000D37070BD94F0000F0FD101F0004640005F
:10C7800041EB010111F4801F08BF013CF7D041EAE1
:10C79000060195F0000F18BF704703F000465200E5
:10C7A00043EB030313F4801F08BF013DF7D043EAB6
:10C7B0000603704794EA0C0F0CEA135518BF95EA6C
:10C7C0000C0F0CD050EA410618BF52EA4306D1D1F3
:10C7D00081EA030101F000414FF0000070BD50EA12
:10C7E000410606BF1046194652EA430619D094EA9C
:10C7F0000C0F02D150EA013613D195EA0C0F05D186
:10C8000052EA03361CBF104619460AD181EA0301D9
:10C8100001F0004141F0FE4141F470014FF0000091
:10C8200070BD41F0FE4141F4780170BD70B54FF02C
:10C83000FF0C4CF4E06C1CEA11541DBF1CEA1355AC
:10C8400094EA0C0F95EA0C0F00F0A7F8A4EB05048E
:10C8500081EA030E52EA03354FEA013100F0888085
:10C860004FEA03334FF0805545EA131343EA12634E
:10C870004FEA022245EA111545EA10654FEA002603
:10C880000EF000419D4208BF964244F1FD0404F5BC
:10C89000407402D25B084FEA3202B61A65EB030518
:10C8A0005B084FEA32024FF480104FF4002CB6EBD5
:10C8B000020E75EB030E22BFB61A754640EA0C0055
:10C8C0005B084FEA3202B6EB020E75EB030E22BF95
:10C8D000B61A754640EA5C005B084FEA3202B6EBD6
:10C8E000020E75EB030E22BFB61A754640EA9C0095
:10C8F0005B084FEA3202B6EB020E75EB030E22BF65
:10C90000B61A754640EADC0055EA060E18D04FEA22
:10C91000051545EA16754FEA06164FEAC30343EAC2
:10C9200052734FEAC2025FEA1C1CC0D111F4801F8F
:10C930000BD141EA00014FF000004FF0004CB6E788
:10C9400011F4801F04BF01430020B4F1FD0C88BF27
:10C95000BCF5E06F3FF6AFAEB5EB030C04BFB6EB32
:10C96000020C5FEA500C50F1000041EB045170BD25
:10C970000EF0004E4EEA113114EB5C04C2BFD4EB52
:10C980000C0541EA045170BD41F480114FF0000ED6
:10C99000013C90E645EA060E8DE60CEA135594EA52
:10C9A0000C0F08BF95EA0C0F3FF43BAF94EA0C0F55
:10C9B0000AD150EA01347FF434AF95EA0C0F7FF4CA
:10C9C00025AF104619462CE795EA0C0F06D152EA1E
:10C9D00003353FF4FDAE1046194622E750EA410602
:10C9E00018BF52EA43067FF4C5AE50EA41047FF413
:10C9F0000DAF52EA43057FF4EBAE12E74FF0FF3C78
:10CA000006E000BF4FF0010C02E000BF4FF0010C48
:10CA10004DF804CD4FEA410C7FEA6C5C4FEA430CC1
:10CA200018BF7FEA6C5C1BD001B050EA410C0CBF10
:10CA300052EA430C91EA030F02BF90EA020F002072
:10CA4000704710F1000F91EA030F58BF994208BFD9
:10CA500090422CBFD8176FEAE37040F00100704796
:10CA60004FEA410C7FEA6C5C02D150EA013C07D1ED
:10CA70004FEA430C7FEA6C5CD6D152EA033CD3D038
:10CA80005DF8040B704700BF8446104662468C4632
:10CA90001946634600E000BF01B5FFF7B7FF002865
:10CAA00048BF10F1000F01BD4DF808EDFFF7F4FF8E
:10CAB0000CBF012000205DF808FB00BF4DF808ED19
:10CAC000FFF7EAFF34BF012000205DF808FB00BF3C
:10CAD0004DF808EDFFF7E0FF94BF012000205DF85E
:10CAE00008FB00BF4DF808EDFFF7CEFF94BF012013
:10CAF00000205DF808FB00BF4DF808EDFFF7C4FF0C
:10CB000034BF012000205DF808FB00BF4FEA410C54
:10CB10007FEA6C5C02D150EA013C0AD14FEA430C37
:10CB20007FEA6C5C02D152EA033C02D14FF0000074
:10CB300070474FF0010070474FEA410212F50012B2
:10CB400015D211D56FF47873B3EB625212D94FEA54
:10CB5000C12343F0004343EA505311F0004F23FA3E
:10CB600002F018BF404270474FF00000704750EA93
:10CB7000013005D111F0004008BF6FF00040704750
:10CB80004FF00000704700BF4A0011D212F50012AA
:10CB900011D20DD56FF47873B3EB62520ED44FEA15
:10CBA000C12343F0004343EA505323FA02F0704795
:10CBB0004FF00000704750EA013002D14FF0FF30D3
:10CBC00070474FF0000070474FEA4102B2F1E04376
:10CBD00024BFB3F5001CDCF1FE5C0DD901F0004C64
:10CBE0004FEAC0024CEA5070B2F1004F40EB8300B4
:10CBF00008BF20F00100704711F0804F21D113F1E0
:10CC00003872BCBF01F00040704741F480114FEA18
:10CC10005252C2F11802C2F1200C10FA0CF320FAA1
:10CC200002F018BF40F001004FEAC1234FEAD323BE
:10CC300003FA0CFC40EA0C0023FA02F34FEA430328
:10CC4000CCE77FEA625307D150EA01331EBF4FF0B1
:10CC5000FE4040F44000704701F0004040F0FE40CC
:10CC600040F40000704700BF53B94AB9002908BF1B
:10CC700000281CBF4FF0FF314FF0FF3000F00CB820
:10CC8000ADF1080C6DE904CE3DF054FCDDF804E094
:10CC9000DDE9022304B07047704700BF0348044B2E
:10CCA000834202D0034B03B118477047684100200C
:10CCB00068410020000000000548064B1B1AD90FF0
:10CCC00001EBA301491002D0034B03B11847704791
:10CCD00068410020684100200000000010B5064CAB
:10CCE000237843B9FFF7DAFF044B13B10448AFF3DD
:10CCF00000800123237010BD684100200000000067
:10CD000054A8040808B5054B1BB105490548AFF305
:10CD10000080BDE80840FFF7CFBF00BF0000000063
:10CD20006C41002054A80408014808F0B7BC00BFBB
:10CD300010E8040808B50E4B5A7B104012D00D4A7B
:10CD40001268012A11D00C4A92F88D1019B192F88C
:10CD50008C20022A09D193F8630018B10AF010FA66
:10CD600080F0010000F0010008BD0020FAE700BFDC
:10CD700004A8002000A70020C43C002070B5354C5A
:10CD800094F8303099071DD594F88D301BB194F884
:10CD90008C30012B05D994F8303003F0FD0384F872
:10CDA00030300420FFF7C6FF08B9002070BD2A48C4
:10CDB0004FF0FF3108F0C0FF10B9284808F06EFCB2
:10CDC0000120F3E794F8303013F0100610D094F8F7
:10CDD000303003F08F0384F83030214B5B7BDA0670
:10CDE000E3D50820FFF7A6FF0028DED01D48E5E7C1
:10CDF00094F8305015F0400519D009F0D3F8012807
:10CE00000ED1174B5B7B03F00C03082B08D184F881
:10CE100030600820FFF78EFF0028C6D01248CDE70B
:10CE200094F8303003F0A30384F83030F1E794F83D
:10CE300030301B06B9D5042084F83050FFF77AFF54
:10CE40000028B2D02B464FF0FF329621024808F05E
:10CE5000E3FFB5E7C43C002029CD000818E804082A
:10CE600004A8002004E80408F8E7040808B5094B02
:10CE700093F86330022B08D90AF042F849200AF0EF
:10CE800065F8BDE808400AF001B9BDE8084002486D
:10CE900008F004BC04A80020DCE8040808B5084B2E
:10CEA000D3F808310D2B4FF0000106D1054B1020AF
:10CEB000197008F02FFA012008BD0846FCE700BFF2
:10CEC000C43C0020A141002037B50E4C054694F922
:10CED00000000CF079FF4FF4802008F0F9FA78B1E7
:10CEE0001F2D0DD01A2D0BD0074B22781A7002215E
:10CEF000012300934FF47A720023084622F0AAFD22
:10CF000003B030BDA0410020000000202DE9F04F0B
:10CF1000002495B0142221460FA8CDE90A440C94B0
:10CF200037F0C1FA08F002FF0122802113909E48D9
:10CF30009E4E9F4DCDE90D442EF00CFC0EF054FB9F
:10CF400043F21D000EF02AFB00F00300994B02286B
:10CF500008BF832018700EF0FBF980F00100C0B20A
:10CF60003070A0B3337813B1752385F86530012094
:10CF700008F0AEFA002110F035FC0FF0B1F80021F6
:10CF800008460DF041FD64274FF0FF31012085F880
:10CF90004E7010F041FE38460FF0B4F8864B8748CB
:10CFA00000274FF0FF32DA611F60854A854B11215F
:10CFB000BC4208BF1346844A37F07EF97F4827F009
:10CFC00021FC23463A46394601200EF047FD10F079
:10CFD0005BFA10F047FE00220CA90BA810F0E8FA4B
:10CFE0009DF82C00794FC0F3401008F09FF90446DB
:10CFF000012008F06DFA012110F0F4FB0FF070F839
:10D000000DF0E0FE00F0ACFF80F0010087F8240096
:10D010000DF04EFF03F07EF90CF004FE0DF034FF2E
:10D020006B482DF0E9FC0AF011FF0AF00FF91AF035
:10D0300079FC0EF02BFC08F0ABFB0B9B9A0608D595
:10D0400010F04AFE0A2804D108F03EF901200DF044
:10D050001FFE0B9B9B0708D510F03EFE302804D125
:10D0600000200DF015FE01247CE724F079FB04F08C
:10D0700071FD24F023FE09F071FE002C00F08D807C
:10D0800010F02AFEA0F123046042604108F00AF982
:10D09000102008F01DFA95F86210069095F86100CE
:10D0A0000AF0E2F84B4804F001FC4FF4804008F02D
:10D0B0000FFA30B10B9B980703D4012108460EF0FC
:10D0C000CDFD27F085FC1DF0E3FE0FF07FF90B9BF3
:10D0D000990712D510F000FE35280ED10123042146
:10D0E0000320009340F2DC523B4B22F0B3FC0FF0E4
:10D0F0000FFE3A48002108F0F3F895F86E30012B46
:10D1000003D00FF099F90FF0A9FD95F86A30344972
:10D110003448594308F038FE95F86D30324847F2EC
:10D120003051594308F030FE95F84B30013BDBB2EB
:10D13000022B04D84FF0FF31012010F06DFD01F0FB
:10D140009DFE01F075FFDFF8AC90002408F0EEFDC5
:10D15000DFF8A480254B079001261E7010F0D2FF47
:10D1600008F026FE0EF092FBD8F8003093F82D3030
:10D170001BB11F4B1A78002A40D10AA909A810F048
:10D1800045FE9DF82520003A18BF01220CA90BA8E6
:10D1900010F00EFA0023039338E010F09DFD2328D1
:10D1A0007FF476AF6CE700BF000002408C410020A6
:10D1B00004A80020D0360020203A00208D41002015
:10D1C000B2AB0408A8AB0408B7B10408C43C002003
:10D1D000686F0120F03D0020C2AB040834A8002095
:10D1E00040771B00204401208441002001000020E2
:10D1F000387500204AA9002000A800201B78022BC7
:10D2000068D10C960A9610F04FFD03960A9B1BB14D
:10D210009DF82530002B62D10C9B003B18BF0123E9
:10D220000493069B484E03B31DF07AFC1F281ED0C2
:10D230004FF0010A122086F800A01DF0FDFC4349C2
:10D24000434837F064FA40F20113A7F8D0301A20AF
:10D25000404BC7F80C3187F8D2A01DF0EDFC3E48DA
:10D2600000231A22642108F0D7FD0023069309F059
:10D27000A7FF60B10A9B012B07D00C9B012B04D0A8
:10D280009DF825300BB90B9B5BB309F0C5FF3378D4
:10D290003BB10B9BD80741BF012223F001030C9245
:10D2A0000B93DFF8B8A09AF80030002B60D01DF087
:10D2B0000FFCA0F12103012B52D801202AF0CCF958
:10D2C00001230646002840F00C810093A0220E2383
:10D2D00001460BE10C940A9410F0E6FC5AE7012396
:10D2E0009EE799F8003053B909F090FF38B10B9BD5
:10D2F000DA0704D401220C9213430B93C7E799F881
:10D30000003063B109F082FF18B19DF824301B078B
:10D3100005D501230C930B9B23F00103EDE799F84E
:10D320000030002BB3D009F071FF0028AFD00C9B68
:10D3300013B99DF8243013B109F06EFFE9E70B9B98
:10D3400043F00103D9E700BFA1410020D0AB04089E
:10D35000983D00209DCE00086DCE00084A51012066
:10D360000B2803D11CF054FE0028A6D18AF80040F7
:10D37000954B964E1A781AB9954A1278002A40D0E1
:10D380001B78002B00F0BE800B9BD90700F1BA8000
:10D390000A9B012B1DD1039BDBB91DF099FB1A28B9
:10D3A00005D19DF825301B2B0BD00D2B09D03378E0
:10D3B00033B91DF08DFB232802D023201DF03CFC47
:10D3C0000A94022008F084F818B133780BB10023D6
:10D3D00033700C9B012B14D10B9B13F4087F10D0DE
:10D3E000337833B91DF074FB232802D023201DF0BD
:10D3F00023FC02200C9408F06BF810B1337803B1D1
:10D40000347008F0CFFD0A9B012B824635D10B9B6F
:10D41000DA0732D49DF825307BB31DF059FBA0F11B
:10D420001A02082A834604D840F28513D340DB074A
:10D4300023D49DF825301B2B1FD19DF8243003F0F9
:10D440000503052B19D12AF0DBF8B0B920F0E8F973
:10D4500098B9BBF10B0F01D027F0C6F94FF0000BC4
:10D46000C7F818B01DF02CFC5A4808F017F9CDE9A0
:10D470000ABBCDF830B0ADF824B0022008F028F88F
:10D4800070B1337863B10C9BD8077AD50B9B9905A3
:10D4900072D50123CDE90B4334700A948DF82540F1
:10D4A000022008F015F83378002800F073820C9AF7
:10D4B000012A40F06B820B99C90740F16782002B6B
:10D4C00040F08C80D8F80030DB7E002B00F08780A5
:10D4D00032700B9BDE0700F1828043F001030B9357
:10D4E0007DE000210093A022092308460CF03EFFB6
:10D4F0002AF090F8314625F089FD022100200DF038
:10D5000089F933E7324B1B78002B3FF47AAF0B9B42
:10D51000DA071BD50C9A012A18D11DF0D9FA1A285E
:10D5200004D195F85E30022B3FF46BAF2A4808F027
:10D53000B5F81DF0CDFA232802D023201DF07CFB86
:10D540000B9B0C9423F001030B935AE798067FF58D
:10D5500058AF9DF825302A2B7FF453AF9DF8243027
:10D56000D9077FF54EAF1DF0B3FA23283FF449AF3A
:10D5700023201DF061FB44E7BAF1010F01D09A06A8
:10D5800087D49DF8250000288AD09DF824309B0779
:10D5900086D5BAF1010F05D110F002FC00287FF406
:10D5A0007FAF76E7BAF1020F7FF473AF22F046FD4A
:10D5B00000283FF46EAF9DF82530013BDBB2012B14
:10D5C0003FF667AF6CE700BF5551012005670120AA
:10D5D0004B510120F4E80408B8E80408347008F05E
:10D5E000E1FC012840F0DB8109F070F9059099F821
:10D5F000003003F0FF0A43B9A34E33782BB1A348A0
:10D60000514624F069FD86F800A095F857301BB10B
:10D610009F4B1B68012B33D097F8C830032B04D1E4
:10D620009C4B1B680BB922F093FB99F800303BBB75
:10D63000994B1B7823BB3B7B022B21D195F85E30A5
:10D64000F3B10BF007F9954B1B6843F04073984218
:10D6500016D10BF005F997F8C8308BB9904A1268CB
:10D6600040F040739A420BD0D7F8C430984207D0AC
:10D670008C4B20F07F40984202D924201DF0DCFA28
:10D680000C9801283DD195F84B30022B40F0A18138
:10D690000B9B022B08D110F0D9FA80F0010095F90C
:10D6A0005010C0B210F0B8FA0B9BD80729D51DF066
:10D6B0000FFA064608F076FC18B3754B1B68012B71
:10D6C0001FD0132E1DD0A6F11E03022B19D997F8D7
:10D6D0008D302BB997F88EA0BAF1000F00F083813E
:10D6E000212E40F07D8129F067F94FF0010A1DF0ED
:10D6F000EFF9BAF1000F00F07C810021084625F017
:10D70000D4FFADF848401DF0E3F980469DF82500B0
:10D71000A0F13003092B00F222829DF8246006F06C
:10D720000606022E40F01B820B9B13F0200A00F02D
:10D730001882A8F12103012B00F2118204F0E4F811
:10D7400003468346002840F08A814FF0000A56467F
:10D7500010F0AAFA0B9B0F93BDF824309DF83020EF
:10D76000ADF840309DF82830119443EA4203039A03
:10D7700043EAC21333438DF84A30049B43EA9603CD
:10D780008DF84B3008F0D2FA13909DF84100A0F1CB
:10D790003003092B1CD89DF8403003F00503052BFE
:10D7A00016D10F9B9B0613D5A8F12103012B00F284
:10D7B000DA810022114626F0F1FC3B4807F06EFFAB
:10D7C00010F072FA0F94ADF840401194ADF84A4051
:10D7D0000FA81DF0D7FABAF1000F06D0334BC3F8EB
:10D7E00000A04FF002038DF8403095F86330DFF869
:10D7F000CCA0002B40F0D8812D4B1B68002B40F0B3
:10D800001682FFF7BBFA22F061F910B1012022F075
:10D810006DF90FA80EF07EFA049B002B40F03382C6
:10D82000002E40F030824FF4005007F051FE0028E7
:10D8300000F02B8207F010FFC0F340000EF052FB07
:10D840001C4808F041FB88B1049B03B90EB1039B4F
:10D8500023B1A8F12103012B40F219829AF86D300F
:10D86000144847F23051594308F08EFA95F84B307E
:10D87000012B01D9032B2CD10F4EF268002A28DD91
:10D88000002B40F01F821BE0AAAC002024AD00203A
:10D8900000A70020B4AC002049A9002044A9002022
:10D8A000682300203F420F0038E80408502300207E
:10D8B00088A8002084410020203A002004A80020ED
:10D8C000F368013BF360F06818B99AF9501010F052
:10D8D000A3F909F095FA08F0D7F909F0D7FC0EF092
:10D8E00047FE0FA802F0A4F9002007F0FCFD99F80C
:10D8F000003043BB9D4B1B782BBBB8F1090F1ED0EA
:10D900004FF4004007F0E4FD58B1994808F0DCFA04
:10D9100038B9984BDAF804201B689A4201D027F0F6
:10D9200003FC934808F0D0FA48B1914808F034FA63
:10D9300028B127F06DFC90498D4808F025FA05992B
:10D940000FA806F0E9F98D4EDFF858A20DF0F2FEAF
:10D9500096F90030834200F0BE810123307005212A
:10D960000DA88AF8003008F00FFA854B96F90020D0
:10D9700093F900309B1A002BB8BF5B42052B02DDE8
:10D980004046FFF7A1FA079E0136B5E1002B7FF470
:10D99000A0AD24E6002B3FF422AE30701FE6794B99
:10D9A0001E6836B9304608F04DFC304608F094FC4D
:10D9B0001CE6754808F0F0F910B90123059316E646
:10D9C000002008F03FFC704842F2107108F0DCF9CA
:10D9D000F3E7039B002B7FF467AE1DF0A7F863E627
:10D9E0001FF00CFF81E6232E7FF481AE21F0E4FCD2
:10D9F0007DE61A281ED11DF073F824280BD1634B45
:10DA000093F85E30022B06D1614B196A586826F0F4
:10DA1000C9F922F0A9F91DF05BF81A2818D0D8F836
:10DA200000305B6983B1002006F032F91E201DF042
:10DA300003F966E60F380128EDD826F071FD0028BD
:10DA4000E9D026F063FDE6E7524807F027FE58E6E6
:10DA500000230C930B9B23F001030B9351E601046D
:10DA60003BD5B8F1220FC0F3842014BF1522162233
:10DA700082422CD1B8F1220F4FEA6311C3F3441252
:10DA800040F0408111F01C0F3FF45FAE13F4407F73
:10DA90007FF45BAE023A4FF4544103F01F03B8F138
:10DAA000220F43EA010343EA421B0CBF1520162054
:10DAB0001DF0C2F8384BD3F800A0ADF848B00023F1
:10DAC000CDE90A330C93ADF82430042640E6431E1A
:10DAD000262BEDD94FF0000AEFE7431EB3F5806F18
:10DAE000BFF433AEDFF8B8A0514603F00BFC0028BA
:10DAF0003FF42BAE22F02CF99AF81410DAF810004B
:10DB00004A1E5142514124F037FE9AF81410DAF8B7
:10DB10001030224A0129136004BF43F040731360A0
:10DB20001F4B93F817A01AF0010F11D1CAF3400A46
:10DB30000121504608F0F6FD1CF0F2FF22281CBF20
:10DB4000124B93F859600AF10101304623F012FD9F
:10DB500048F20303ADF848304FF0000AB5E74FF044
:10DB6000000A5646F6E50B4828E600BF49A9002002
:10DB70002868012044E70408E0930400A041002045
:10DB800000000020B4AC0020ACAC002004A80020B1
:10DB9000C43C0020D0E80408502300206823002063
:10DBA000086701209F41002009F0EAFA00287FF46D
:10DBB00023AEFFF7E3F800287FF425AE1CF088FFC2
:10DBC0001F283FF420AE0A9B012B02D00C9B012B97
:10DBD00005D10B9BD90702D49DF8413013B9002E13
:10DBE0003FF411AE4D4B93F800B029F009FD08B396
:10DBF000002029F031FD80F00100C0B29DF84030D6
:10DC000003F00C020C2A01D09A0727D5BBF1000FB4
:10DC100017D1B8B99AF86330DFF820B17BB1DBF8DF
:10DC2000000007F03BFD3E4BCBF80030EBE508F081
:10DC30000DF8E6E51FF0F4FD0028D9D1DEE73848FD
:10DC4000EFE738B1374B1B68002B3FF4DCAD07F032
:10DC5000FDFFD8E5324807F021FDD4E503F00503C8
:10DC6000052B7FF4D0ADBBF1000F7FF4CCAD0028C5
:10DC70007FF4C9ADDFF8C4B0294BDBF8000098424F
:10DC8000CFD12948E7E70120D8E53046D6E5274837
:10DC900008F082F800283FF4E9AD254B234801261F
:10DCA0001E70244B1E7008F06BF8234B1B68009607
:10DCB00003F590530B334FF47A720421032021F0C3
:10DCC000C9FED3E5032B3FF4FBAD07F0C5FC83078A
:10DCD0007FF5F6ADF7E59AF80030002B3FF453AE30
:10DCE0000DA808F059F800283FF44DAE8AF800401E
:10DCF00046E6002034F01EFA08F018F8B042BFF4EF
:10DD000025AAF6E713F4707F3FF41FAD052A3FF70D
:10DD10001CAD02324FF45841BFE600BF0567012039
:10DD2000F4E8040888A80020ECE8040884410020F6
:10DD30004B5101205551012038670120502300200C
:10DD400000232DE9F0411A4600F1170414F8015D93
:10DD5000DB185241EB1842F10002A042F6D1002438
:10DD6000DFF878E04FF480052646A44603EA05076D
:10DD700002EA060857EA080718BF5EF8247004F1A3
:10DD8000010418BF8CEA070C6D080C2C45EAC67517
:10DD90004FEA5606EAD1C3F30A04DB0A84EA0C040C
:10DDA00043EA42530C4A52F8242001F10B05534038
:10DDB00001F117040022C3F3C02604F8016DDB183B
:10DDC0005241A542F7D103680B6043684B60038959
:10DDD0000B81BDE8F08100BF7CB504087CD5040848
:10DDE0002DE9F0430D46ADF5137D3E493E4E013819
:10DDF000002707AC10F8018FB6468C4607235CF865
:10DE0000049B48FA03F202F0010204F809205A1EAA
:10DE10005EF8049B48FA02F202F00102023B04F8A9
:10DE200009205A1CEBD10437242F01F1100106F10F
:10DE30001006DFD10DF11D010846FFF781FF172203
:10DE40000023A15C013A0B2A41EA4303F9D11FA840
:10DE50001B01036001460022AD2743F2196601321F
:10DE600007FB03639BB2172A41F8043FF7D10DF17A
:10DE70003301134650F8236011F8012F013B82EA69
:10DE8000D6320A70F6D101A90DA8FFF759FF04F1A7
:10DE9000470105F1620205F1460311F8010F22F86E
:10DEA000020D9342F9D104F12F0105F1300211F86E
:10DEB000010F23F8020D9A42F9D10DF10E0105F17F
:10DEC000180311F8010F22F8020D9342F9D10B3417
:10DED00014F8012F23F8022D9D42F9D10DF5137D81
:10DEE000BDE8F083ECB404085CB4040840F2EC72C2
:10DEF00010B50E490E4836F012FC0E480E4A4FF48B
:10DF000000531468117940F8044B043B49B10139BE
:10DF1000002BF8D109490A484FF4807236F0FFFB14
:10DF200010BD0532002BECD1F4E700BF36D9040850
:10DF3000A2620020A2420020ACD5040836D8040812
:10DF4000A241002008B528B1FFF7D0FFBDE8084086
:10DF500007F042BC09F014F90028F5D008BD000014
:10DF6000034BD3F87C03034BC31A58425841704704
:10DF7000005007082DE9F04F70B506460D46002405
:10DF8000AC4200DB70BD04EBC40030442BF0B4FBAA
:10DF90000134F5E7084A030ED15CC3B2D35C43EA0F
:10DFA0000163C0F30741C0F30720515C105C43EAF2
:10DFB000014343EA002070472DE1040810B501EB4E
:10DFC000021100F1100451F8043B027882EA136256
:10DFD0000270427882EA13424270827882EA132207
:10DFE0008270C2785340C37004308442EBD110BDBC
:10DFF0002DE9F04F89B08B18029300F2011304460B
:10E000000D460393029BAB4202D109B0BDE8F08FED
:10E0100094F811310F2B71D904F1F10304AA596856
:10E020001868164603C6039908338B423246F6D168
:10E0300094F8F03001930022214604A8FFF7BEFFB8
:10E040007B4F0126019BB34263D804AA00231178B9
:10E050000133DBB2795C02F8011B102BF7D19DF87C
:10E0600015209DF811308DF811209DF819208DF89C
:10E0700015209DF81D208DF819208DF81D309DF874
:10E0800012209DF81A309DF81E108DF812308DF870
:10E090001E209DF816309DF81B208DF81A309DF833
:10E0A0001F308DF81F209DF817208DF81B209DF83C
:10E0B00013208DF816108DF817202146019A8DF83F
:10E0C000133004A804F20117FFF778FF04AB3A46B7
:10E0D0001E4603CE796008A98E423860334607F1A8
:10E0E0000807F5D1134604F1F10113F8012D0132AF
:10E0F000D2B21A700AB99942F7D100235A1C2344AC
:10E1000084F811212A7893F80131534005F8013B36
:10E1100078E704A80246002311780133DBB2795C6A
:10E1200002F8011B102BF7D19DF815209DF8113036
:10E130008DF811209DF819208DF815209DF81D20CF
:10E140008DF819208DF81D309DF812209DF81A3099
:10E150009DF81E108DF812308DF81E209DF8163097
:10E160009DF81B208DF81A309DF81F308DF81F2068
:10E170009DF817208DF81B209DF813208DF81610A0
:10E180008DF817208DF813304FF00008027890F8C2
:10E1900001C0817890F8039082EA0C0B4FEADB1300
:10E1A00081EA0B0E03EB430389EA0E0A03EBC30378
:10E1B00083EA4B0382EA0A0B83EA0B038CEA010B26
:10E1C00003704FEADB1303EB430303EBC3038CEA57
:10E1D0000A0C83EA4B0383EA0C0381EA090C4370BF
:10E1E0004FEADC1303EB430303EBC30383EA4C0363
:10E1F00081EA0A014B4082EA09028370D30903EBEA
:10E20000430303EBC30383EA420308F101088EEAE8
:10E21000030EB8F1040F80F803E000F10400B5D15B
:10E220003246214604A80136FFF7C8FEF6B209E7D8
:10E230002DE104082DE9F04F8FB00E4601A91546D7
:10E2400000F09AFA9DF80530023BDBB2012B61D851
:10E250009DF80630002B5DD03349344C002D18BF9B
:10E260000C46202B0BBF082504250E210A2184F81B
:10E27000F01001ABAA4604EB850B20461A7DDF7C2B
:10E28000120442EA07629F7D3A435F7D42EA072219
:10E2900040F8042B834503F10403EFD10A290CBF96
:10E2A0004FF02C084FF03C08271F5FFA8AF3B3FBAE
:10E2B000F5F905FB193313F0FF035BF8040C2CD1BF
:10E2C0004FEA3060FFF766FE194B13F8093080EA19
:10E2D000036057F8043F0AF1010A4340D0454BF868
:10E2E000043BE2DC0023C4F8F530C4F8F930C4F88C
:10E2F000FD30330E84F8F130330C84F8F230330AF9
:10E3000084F8F330102384F81131012384F8F46089
:10E3100084F812310FB0BDE8F08F062DD9D9042B47
:10E32000D7D1FFF737FED4E7A46B0020906A002016
:10E3300022E10408044B0A4693F8121119B1014670
:10E340001846FFF755BE7047A46B0020044B0A46E1
:10E3500093F8121119B101461846FFF749BE7047EC
:10E36000906A0020F0B50023C3540133B3F5807FD9
:10E37000FAD10023451E1C46B3FBF2F602FB16360B
:10E3800015F8017F8E5D3E443444E4B20133065DEE
:10E390002E70B3F5807F0755EED1002380F8003151
:10E3A00080F80131F0BD10B590F8003190F80111FE
:10E3B0000133DBB280F80031C25C1144C9B280F88D
:10E3C0000111445CC4544254C35C1A44D2B2805C10
:10E3D00010BD00002DE9F04196B00D4609A9174681
:10E3E00000F0CAF99DF82560012E2FD19DF8264036
:10E3F00064B322460DF13701684636F090F904F116
:10E4000058036B442A0E03F8582C2A0C03F8572C97
:10E4100003F8555C2A0ADFF844800E4D03F8562CA9
:10E42000221D0D4C002F0CBF28464046D2B2694633
:10E43000FFF798FF23784BB901464FF481729F4252
:10E440000CBF4046284636F06AF9267016B0BDE883
:10E45000F08100BFB96C0020B86C0020BB6D0020BB
:10E4600038B504464518AC4200D138BD0348FFF723
:10E470009AFF2378584004F8010BF4E7BB6D0020A5
:10E4800038B504464518AC4200D138BD0348FFF703
:10E490008AFF2378584004F8010BF4E7B96C002098
:10E4A00070B5174E317801B170BD164D164C4FF452
:10E4B000CC622846C4E90211C4E90411216035F098
:10E4C000F2FF1249124ADFF84CC0FF2323750B6894
:10E4D00083EA433383EA534383EA43130B60636065
:10E4E00001231370BCE807003370BCF80030C5F896
:10E4F0000300C5F80710C5F80B20A5F80F3070BD54
:10E50000BD6E0020C06E0020207500200400002099
:10E51000BE6E002030E20408024B00229A609A810D
:10E520009A73704720750020082808D8021E18BF6B
:10E530000122044B00211874DA73598270470022BB
:10E540001046F6E720750020014B187C704700BF8D
:10E55000207500200F4BFF2818750FD050B10428EC
:10E560000DD00022012119709870DA731A74A3F883
:10E570000D2070471870D8731874704770471A7C54
:10E5800098700021197002B9187401210022D97302
:10E590005A82704720750020034B187818B198787C
:10E5A000003818BF012070472075002000487047D0
:10E5B000207500200E4B1A7DFF2A10D168B100F0A3
:10E5C0001F014009012204281A7059700AD80CBF93
:10E5D000114600219870D973704718707047104623
:10E5E000FFF7B8BF002110469870D973704700BF7D
:10E5F00020750020014BD87B704700BF207500209C
:10E60000214B1B7813B1214B1A7802B97047DFF800
:10E6100084C01F48DCF8002000B5510880EA520091
:10E6200012F0010F9A6818BF0146501C9A78012A0F
:10E6300083B0C3E90110CCF8001014D0023A012ACB
:10E640000BD8587801910122FFF7F4FD0F4B019987
:10E6500058780022FFF7EEFD0C4B40F20112A3F8B0
:10E660000D2003B000BD58780191FFF7B3FE074BB2
:10E67000019958780022FFF7ADFE044B40F20112D9
:10E68000A3F80D2003B000BDBD6E00202075002052
:10E690000300208004000020064B1A784AB19B78C2
:10E6A000012B04D0023B012B03D8FFF743BEFFF739
:10E6B000D7BE704720750020064B1A784AB19B7868
:10E6C000012B04D0023B012B03D8FFF73FBEFFF71D
:10E6D000D7BE704720750020054AD37B3BB1137C21
:10E6E000002B02F1120208BF042300F06FB870473C
:10E6F000207500201F2800D9704770B51C4A00EB18
:10E70000400303EB0313134401F1300C0C684D6814
:10E71000D1F808E0CE68DE60103161451C605D60B4
:10E72000C3F808E003F11003F0D1B1F800C0897814
:10E730009970A3F800C000EB400303EB0313DFF86C
:10E7400034E0D0540A4B00218C468EF8001003F5BB
:10E75000CC605A78333312B101314FF0010C98423A
:10E76000F7D1BCF1000F01D08EF8001070BD00BFD2
:10E77000C06E0020BE6E00201F281FD810B5124AA0
:10E7800000EB400303EB03131344084603F130028C
:10E79000D3F800E0D3F804C09968DC68C460103393
:10E7A0009342C0F800E0C0F804C0816000F110009E
:10E7B000EED11A889B788370028010BD0846332200
:10E7C000002135F070BE00BFC06E0020013B30B5A7
:10E7D000DCB2072C26D8154C34F813E0144B4FEA62
:10E7E0000E4EA3FB0E3E4FEA5E2E1588C1B11FFAF6
:10E7F0008EFE00EB41042B469C46734483EA0C0CCE
:10E800001CF4004F05D0B0F800C0CCF1000CA0F80B
:10E8100000C002308442EFD17544013911FB0E551E
:10E82000158030BD46F2666EDFE700BF60E3040886
:10E83000D34D6210000000002DE9F04F2DED068B46
:10E8400053EC132B85B051EC110B8DED002B55ECD7
:10E85000104BFDF709FD58A3D3E90023FDF7BCFEDB
:10E8600041EC180BB0EE480AF0EE680A38F0E0FA16
:10E87000B0EE40AAF0EE60AAB0EE480AF0EE680AE8
:10E8800038F082FA4CA3D3E90023204629465BECFA
:10E8900010ABFDF7A1FE9DED002B47A3D3E90023AC
:10E8A00041EC190B51EC120BFDF796FEB0EE490A44
:10E8B000F0EE690A41EC180B38F0BAFA8DED000B56
:10E8C000B0EE490AF0EE690A38F05EFA57EC106BC8
:10E8D000B0EE480AF0EE680A38F0AAFA8DED020BA5
:10E8E000B0EE480AF0EE680A38F04EFADDE902238D
:10E8F0003046394655EC104BFDF76EFE22468046F9
:10E9000089462B46DDE90001FDF766FE52465B466F
:10E91000FDF762FE02460B4640464946FDF7A4FC61
:10E9200002460B46FDF758FE2246804689462B4696
:10E9300051EC1A0BFDF750FE02460B46FDF74CFE5C
:10E9400042464B46FDF792FC41EC100B38F044F880
:10E9500022462B4630463946B0EE408AF0EE608AB9
:10E96000FDF73AFE52465B46FDF736FEDDE902232F
:10E9700004460D46DDE90001FDF72EFE02460B467A
:10E9800020462946FDF772FCB0EE480AF0EE680A10
:10E9900041EC110B37F022FF09A3D3E9002351EC1E
:10E9A000100BFDF719FE41EC100B05B0BDEC068B0A
:10E9B000BDE8F08FAFF30080000000A046DF913F7C
:10E9C000000000C06E4F584138B5264C2378032B09
:10E9D000DDB21AD0042D37D0022D34D1002008F03A
:10E9E00089FF284606F04AFE1F4801224FF40071B5
:10E9F0002CF0B0FECC220621442008F0F7FC402089
:10EA000008F024F901200AF0FDFF184B0021012035
:10EA100019700FF03BFB164B93F86E30012B02D9A7
:10EA200001200DF0EDFC134B1B680020198C07F042
:10EA3000E3FE012007F0D2FC0F4A002313700F4AB7
:10EA400013700423237038BD036813F00103FAD157
:10EA500023700B4B93F8EB30012B04BF094A13735F
:10EA6000F1E700BF38750020000C02404AA90020E1
:10EA700004A8002000A8002049A900200567012063
:10EA800008000020C43C002070B5164ED6E936457B
:10EA900022462B4620462946FEF738F898B196F8CC
:10EAA000EA309A0612D596F8D5309B070ED5B6F8FF
:10EAB000A20096F8A13003EB002022F0DDFF86EDE6
:10EAC000360B55EC104B45EC104B70BD064B58689F
:10EAD000064B1B68984202D022F0F2FFEFE7044D8C
:10EAE0000024F0E70800002004A8002044E7040800
:10EAF0000000F87F70B5174ED6E9384522462B4600
:10EB000020462946FEF702F898B196F8EA309A06B0
:10EB100012D596F8D5309B070ED5B6F8A50096F815
:10EB2000A43003EB002022F0A7FF86ED380B55EC54
:10EB3000104B45EC104B70BD074B084A59681268E2
:10EB4000914203D0986822F0BBFFEEE7044D002409
:10EB5000EFE700BF0800002004A8002044E70408F5
:10EB60000000F87F084910B5B1F8003138B1D80875
:10EB700003F007040122A2400C5C22430A54013333
:10EB8000A1F8003110BD00BF407500202DE9F04113
:10EB9000194C07460E460825B4F8041194F806816E
:10EBA00007F0010281EA020343F3000323F4F74371
:10EBB00023F0770383EA5103A4F804315AB14046A5
:10EBC000FFF7D0FFB4F8023101339BB2A4F8023151
:10EBD00056B1052B08D188F0010084F80601FFF733
:10EBE000C1FF0023A4F80231013D15F0FF054FEAF3
:10EBF0005707D1D1BDE8F0814075002038B50546F2
:10EC00000024E3B2E85C00B938BD01210134FFF70C
:10EC1000BDFFF6E7054A92F8EA3019B1034382F8DE
:10EC2000EA30704723EA0003F9E700BF080000203C
:10EC3000F8B51F4C2378012B17D11E4E1E4933689F
:10EC40001E4D13F0070F11D11D4B1A688A5C2A70F4
:10EC50001A6801321A601A681A4B1B689A4205D169
:10EC600019482FF021FD02232370F8BD91F80721E8
:10EC70002B78002A42F6E06418BF4FF47A5413F060
:10EC8000010305D0002A42F2107318BF4FF4FA6353
:10EC90000E4F1C443B68A34203D0A0B208F02AFEEA
:10ECA0003C602B785B082B70336801333360DCE702
:10ECB000387500204C7600204075002048760020F2
:10ECC0005076002058760020606B0120547600209A
:10ECD0002DE9704F664E2DED068BD6E9048996ED31
:10ECE000068BD6E90C45B0EE481AF0EE681AD6E964
:10ECF0000EAB84B04BEC13AB45EC124B49EC108BD4
:10ED0000FFF79AFD002251EC100B4FF08043FDF706
:10ED1000F3FE002800F0998053EC182B504659461A
:10ED2000FDF7A2FA4CA3D3E90023FDF755FC4AA353
:10ED3000D3E9002341EC1A0B40464946FDF74CFC51
:10ED400045A3D3E9002341EC190B20462946FDF7E2
:10ED500043FCB0EE4A0AF0EE6A0A41EC180B38F0B8
:10ED600067F85BEC10ABB0EE480AF0EE680A38F0DA
:10ED70000BF855EC104BB0EE490AF0EE690A38F08A
:10ED800057F88DED020BB0EE4A0AF0EE6A0A37F042
:10ED9000FBFFDDE90223204629468DED000BFDF740
:10EDA0001BFC9DED000B53EC102BFDF715FCB0EE9A
:10EDB000490AF0EE690A8046894637F0E5FF8DED95
:10EDC000000BB0EE480AF0EE680A38F031F8DDE9E1
:10EDD000000153EC102BFDF7FFFB42464B46FDF7BD
:10EDE00043FA22462B46CDE9000150465946FDF72D
:10EDF000F3FB9DED001B41EC100B37F0EFFC55ECE5
:10EE0000104B0022002320462946FDF757FE40B153
:10EE10002046294612A3D3E90023FDF727FA04462A
:10EE20000D4611A3D3E9002320462946FDF7D4FB64
:10EE3000104B114C0022FDF7CFFBFDF7A5FE04F1AE
:10EE4000200330840FCB84E80F00308C04B0BDEC7D
:10EE5000068BBDE8708F00BF000000A046DF913F29
:10EE6000182D4454FB21194000000020DCA54C4023
:10EE700008000020000059401800002008B5064B8B
:10EE80000120002183F8E900FFF7C4FEBDE8084037
:10EE90008020FFF7BFBE00BF0800002010B5124B56
:10EEA00093F8EB3086B0E3B1104C23787BB10EF0D1
:10EEB000F5FA0023CDE90333ADF80830019006F0F0
:10EEC00035FF0223059001A82370FFF77DFD002187
:10EED0000120FFF79FFE044806B0BDE8104006F091
:10EEE0004FBF06B010BD00BF0800002038750020DD
:10EEF000234B70B5186802F0B5FE68B1214902F0E5
:10EF000005FE01464020FFF785FEB9B3FFF7BCFDC3
:10EF1000BDE87040FFF7EEBD1B4B1C4CD3F83C2105
:10EF20004FF4EE735A43A51895F884100029E9D0E0
:10EF3000174B072183F860100F21A3F8761004F116
:10EF40008401561883F875008858B188A3F86B10AF
:10EF500095F88A10C3F8670030398B3483F86D1048
:10EF60001119A258C3F86E208A88A3F8722095F868
:10EF70009120303A83F874200121C3E770BD00BFAF
:10EF80003C78002060000020C43C002084780020F1
:10EF900008000020034B04490020C3E93801C3E9FD
:10EFA00036017047080000200000F87F1D4B70B547
:10EFB00093F88D501C4C4DBB94F8EB3033B31B4B86
:10EFC0001B6893F82D602564012384F8E9304FF61F
:10EFD000FF73002263640023C4E91223C4E91423ED
:10EFE000FFF7D8FF20464FF47A7106F0CDFE04F10A
:10EFF000080006F0C5FE2EB104F19801304602F07B
:10F0000085FD054629462020FFF704FE94F8EA30E6
:10F010005B0605D5BDE8704000214020FFF7FABD32
:10F0200070BD00BFC43C00200800002000A80020E4
:10F0300038B50E4C94F8EB30B3B1FFF7B7FF0025AD
:10F0400001214FF6FF73C4E90A530022002308464A
:10F05000C4E90C23C4E90E23FFF7DCFD2946802018
:10F06000BDE83840FFF7D6BD38BD00BF080000201E
:10F07000044B93F8EB0020B193F8EA00C04300F092
:10F08000010070470800002008B50B4B93F8EB20F7
:10F090008AB128B10021BDE808400120FFF7BABDC0
:10F0A00093F8EA20D20706D44FF47A71184606F096
:10F0B0006BFE0121EFE708BD0800002010B5124BE0
:10F0C00093F8EB2088B0CAB193F8EA4004F0010449
:10F0D0002046FFF7D9FF0D4B1B688CB103F23B4371
:10F0E0000B4A112103A835F0E7F8002300934FF4F1
:10F0F0007A7203AB0421032020F0ACFC08B010BDF1
:10F1000003F2A143ECE700BF0800002038670120AC
:10F11000E1AB0408014B93F8EB00704708000020B6
:10F120002DE9F04F774B9DB093F88D30079305464E
:10F13000002B40F0938006F035FF0128074640F091
:10F140008D8055B9704B93F8EB20002A00F0868033
:10F1500093F8EA30DB0740F181806C4B1B78002B81
:10F160007CD1694CFDB194F8EA30C3F3801658079E
:10F1700006D5674A5168674A1268914240F0AE84EA
:10F1800099070AD5D4E93601D4E93823002E6ED088
:10F19000FDF7BCFC002800F099805F4B1B6800273E
:10F1A00003F6AB336BE094F8EB30022B4DD094F8C0
:10F1B000EB30013BDBB2012B54D90023099394F8C7
:10F1C000EB30012B03D0033B012B00F2C480534EE4
:10F1D00030684369002B41D00D2101F0F5FD002876
:10F1E0003CD14B4F97F85330002B40F0838094F87C
:10F1F000EA309A0632D5002004F04AFD97F86E30C6
:10F20000012B02D900200DF0FBF800200EF072F85F
:10F21000502600200EF022FF18B906F01DFA8307D1
:10F2200006D5192032F086FF07F050FB013EF0D1E1
:10F2300001200EF05FF8002E78D197F86E30012B88
:10F240000CD901200DF0DCF808E004F1080006F00C
:10F25000A3FD18B194F8EA309E06A8D400201DB092
:10F26000BDE8F08F94F8EA30C3F340167FE7FDF76E
:10F270004DFC002891D1284B1B6803F6BF033F20AB
:10F280000090274A112117A835F016F82EB327B39E
:10F29000FDB103274FF0100801211A2001260BF0C1
:10F2A00025FC4346A0221821002000960BF05EF8B2
:10F2B0003A4617A918200AF0DFFE0BF049FC0BF0C4
:10F2C00013FB002D40F0C582099678E7154B3746B1
:10F2D000D6E704274FF02008DEE70123009340F231
:10F2E000DC5217AB0421032020F0B4FB0E4806F0DB
:10F2F000D5F9B3E73368586906F058FF00287FF462
:10F3000076AFABE7C43C0020080000203875002031
:10F3100004A8002044E704083867012000A8002062
:10F32000F7AB0408EFAB0408B8E80408002108466E
:10F330000EF0ACFE012108460EF0A8FE08F09EFD7E
:10F3400007F0B4F906F0F2FC064606F0EFFC801B6D
:10F35000312840F27A8294F8EA3085F0010504EB16
:10F36000851513F0040305F158050AD0B4F84420BC
:10F370004FF6FF739A4200F06E82A28DD31A18BF27
:10F380000123C34E0893C34B356000251F464FF43D
:10F39000807229461846A3F8025183F8065135F0C9
:10F3A00082F8BD48A7F8005102F084F9BA4B3268E0
:10F3B0009D7192F83D309F074FEA131540F14D8241
:10F3C000537A508903EB002022F056FB3368B3F8E0
:10F3D0000D001B7B03EB00205BEC10AB22F04CFB21
:10F3E0008DED040B4DB36B1EDBB2062B00F23C829D
:10F3F000AA4A02EBC303D3E9006732463B465046B4
:10F400005946FDF7E9F8FDF797FBFDF77BF8324623
:10F410003B46FDF70BFADDE9042382468B46304676
:10F420003946FDF7D9F8FDF787FBFDF76BF8324653
:10F430003B46FDF7FBF9CDE9040194F8EA30D80624
:10F4400040F11A8252465B469549DFF868B2DFF810
:10F4500068A2944E0020FCF707FF85A3D3E90023A0
:10F46000FDF7BAF841EC100B37F0B6FE51EC100B7B
:10F47000FDF762FB90FBF6F10BFB010342F259052D
:10F480006FF05A0993FBF5F20AFB02335B27213236
:10F4900093FBF7F009FB003321318DF83D20213338
:10F4A00000F121028DF83C108DF83E208DF83F30A0
:10F4B0004FF000087C4B8DF840800022DDE904010C
:10F4C000FCF7D4FE6CA3D3E90023FDF785F841ECEB
:10F4D000100B37F081FE51EC100BFDF72DFB90FB6C
:10F4E000F6F60BFB060090FBF5F50AFB050090FB1A
:10F4F000F7F707F121038DF84E3009FB0700089B51
:10F500008DF850802136213521308DF84C608DF8F2
:10F510004D508DF84F00002B46D0E08D002843D091
:10F52000FCF7F0FF56A3D3E90023FDF755F8FDF7EC
:10F5300003FB0546A08DFCF7E5FF51A3D3E90023AB
:10F54000FDF74AF8FDF7F8FA40450346B8BFC31C7B
:10F55000C11C4FEAA30480F28A815A342846FCF782
:10F56000D1FF524B0022FCF781FE41EC100B37F02B
:10F570006BF945A3D3E9002351EC100BFDF756F9C5
:10F5800041EC100B37F028FE51EC100BFDF7D4FACC
:10F5900004F121038DF85C30213000238DF85D00EB
:10F5A0008DF85E3001230793102400217E20013C5A
:10F5B000FFF7ECFA14F0FF04F7D1364F3C4D4FF64D
:10F5C000FF73A7F8043115F8010B4000012100F08A
:10F5D000FE000134FFF7DAFA062CF4D10121602095
:10F5E000FFF7D4FA2C48DFF8B080FCF731FE06288C
:10F5F000044628BF062406465FFA84F90025EBB2CC
:10F60000994500F2E381052E40F2EA81204B1C6807
:10F61000207A30304000012100F0FE00FFF7B6FAFA
:10F62000A37D002B14BF02230123049314BF4FF0CA
:10F63000010B4FF0000B04F10F0600253046FCF7DC
:10F6400007FE0628804628BF4FF0060882465FFA6C
:10F6500088F2731E4FF000095FFA89F18A4200F2C6
:10F66000EF81BAF1050F40F2FA8127E0AFF3008095
:10F6700000000000F83F174100000000F83F07417C
:10F680007B14AE47E17A843F94EBBE02B8B3B33F3C
:10F690003C750020407500205C76002070E3040873
:10F6A00000805640A37F0B00008066400000F03FC2
:10F6B00026AC04085D80F4FFA7DFFFFFA5EB0B027B
:10F6C000B37950425041303300EB43000121C0B2C6
:10F6D000FFF75CFA049A6B1C9A4206F107064FF09A
:10F6E0000105ABD829460320FFF750FA2946F02040
:10F6F000FFF74CFA079B002B00F0BE810DF15C0870
:10F70000A07F637FBE4E2130002B5FFA80F94FF05F
:10F7100001014FF0210014BF5C252F25FFF736FAB9
:10F7200096F8EA30DB0640F1AA8101212846FFF76E
:10F730002DFA0FA8FFF762FA13A8FFF75FFA01216D
:10F740004846FFF723FAAF48B8F1000F18BF40460C
:10F75000FFF754FAB8F1000F4FF001010CBF212060
:10F760005F20FFF713FAE37F1BB104F11F00FFF7DF
:10F7700045FAB7F80451E8430121C0B2FFF706FA91
:10F780006FEA15200121C0B2FFF700FA032500211E
:10F790007E20013DFFF7FAF915F0FF05F7D1B7F824
:10F7A0000031994A9948DB081360994B85611D60C7
:10F7B000984B1D60984B4FF0FF321A6094F83D3023
:10F7C000964A026003F00103002B87F807310CBF53
:10F7D00001230723C0E9013547F23053C3602FF0FE
:10F7E0007FF808B12AF0DAFB88480DA9CDE90D555C
:10F7F0002FF03AFA08B12AF0D1FB00200AF002F902
:10F80000002008F077F8102007F020FA0BF092FFA4
:10F8100010F11E020DD4D2B20621442007F0E6FDFD
:10F820007F4800224FF400712BF094FF022005F076
:10F8300019FF7C4B754801221A702EF0FBFE099BC4
:10F84000002B40F03281012009E5012032F072FCEA
:10F850007BE509957FE5002393E594ED0E7BD4E9E4
:10F860000CAB8DED047BBDE56F4F0026C5E5B0F513
:10F87000B47FA8BF5A3C71E6DDE904832BF0004554
:10F880002946504623F00049FDF756F90A90FCF747
:10F8900039FE02460B4650462946FCF7E5FC634B11
:10F8A0000022FCF799FE0D460446FDF745F9064691
:10F8B000FCF728FE02460B4620462946FCF7D4FCFE
:10F8C0005B4B0022FCF788FE41EC100B37F084FC08
:10F8D00051EC100BFDF730F9494607464046FDF75D
:10F8E0002BF90B90FCF70EFE02460B4640464946AC
:10F8F000FCF7BAFC4D4B0022FCF76EFE04460D46A9
:10F90000FDF71AF98046FCF7FDFD02460B4620463E
:10F910002946FCF7A9FC464B0022FCF75DFE41ECB2
:10F92000100B37F059FC51EC100BFDF705F90023D3
:10F930000446002259465046FDF7D4F8002814BF6B
:10F940004E235323CDE901733A4A0A9B00961021B6
:10F950000FA834F0B1FC0023DDE904010022FDF71B
:10F96000C1F8002814BF45235723CDE90143324A8B
:10F970000B9BCDF80080102113A834F09DFC089B50
:10F98000002B3FF411AE1E4BDD8D002D3FF40CAE6D
:10F99000988DFCF7B7FD18A3D3E90023FCF71CFEF4
:10F9A000FDF7F2F884B22846FCF7ACFD12A3D3E9C8
:10F9B0000023FCF711FEFDF7E7F880B200901F4A24
:10F9C0002346102117A834F077FCEBE518F8010B5B
:10F9D0004000012100F0FE00FFF7D8F801350EE6E7
:10F9E000C4F106040025012140200135FFF7CEF8BF
:10F9F000AC42F8D10AE600BF7B14AE47E17A843FFF
:10FA00000800002091AF040858760020606B0120A8
:10FA1000507600204C7600205476002000100040E4
:10FA2000000C0240387500200000F03F00004E40FE
:10FA300000005940FCAB04080CAC04081CAC0408E2
:10FA400013F8010F0A924000012100F0FE00089314
:10FA500009F10109FFF79AF80A9A089BFCE5C8F139
:10FA600006084FF000090121402009F10109FFF7C4
:10FA70008DF8C845F7D121E6DDF81C8040E60FA8D7
:10FA8000FFF7BCF801212846FFF780F813A8FFF71D
:10FA9000B5F801214846FFF779F8B8F1000F3FF4B7
:10FAA00062AE4046FFF7AAF85DE696F8EB30022B0F
:10FAB0000AD196F8EC200D4B0D4833F812304FF474
:10FAC0007A71594306F060F90A4CA4F118050FCD7C
:10FAD0000FC495E8030084E80300B4E6002E3FF469
:10FAE000CAAB054B37460020FFF7CABBA8E30408A2
:10FAF0001000002048000020EFAB04081449154B0B
:10FB00008A6A088D10B5540F83F8EB40C2F3046481
:10FB1000120C83F8EE20CA6A83F8EF4040BAA3F8CB
:10FB2000F200C2F3863083F8ED00C2F3C61002F093
:10FB30007F0283F8F120B1F8442083F8F000110926
:10FB400002F00F0283F8EA1083F8EC2010BD00BF2A
:10FB500004A800200800002038B51D4C1D4894F86A
:10FB6000EE3094F8EB2094F8EF101B0443EA427354
:10FB700094F8F320134394F8F220090643EA022391
:10FB800001F0F851194305F0ABFB94F8ED1094F82F
:10FB9000F03011488903DB0103F47E5301F4FE11B8
:10FBA000194394F8F13003F07F03194341F4C00185
:10FBB00005F096FB94F8EC3094F8EA10074803F04F
:10FBC0000F0343EA0111BDE8384005F087BB00BFD1
:10FBD000080000202CA8002030A8002048A8002001
:10FBE000054BD3F8EA200260D3F8EE204260B3F868
:10FBF000F2300381704700BF0800002038B50B4C7D
:10FC00000A222146054634F025FC68B1FFF746F983
:10FC10002B6823606B6863602B892381FFF79CFF4F
:10FC2000BDE83840FFF704BA38BD00BFF20000203D
:10FC30002DE9F04FB44B1B7885B023B105B0BDE87A
:10FC4000F04FFEF7C1BE1AF043FF1E2804D8AF4B99
:10FC5000C340D80700F18B82AD4B93F88D70002F15
:10FC600040F08582AB4D95F8EB30002B00F07F82A1
:10FC700095F8EA3003F02103212B40F078822846E2
:10FC800006F08AF80446002800F0718295F8EAA090
:10FC90001AF0040621D0A04B93F86E40012C07D92E
:10FCA0009E4B1F6807F05307A7F153014F424F4186
:10FCB000D5E936893FB942464B4640464946FCF7AE
:10FCC00025FF002869D0012C46D9944B1C7814F0EC
:10FCD000010441D01AF0800F46D006F027F8A86240
:10FCE000002E74D0002C5DD08C4B93ED020B85ED73
:10FCF0000C0B002C59D0894B93ED060B85ED0E0BA8
:10FD0000002C55D1AC85002695ED0C7B53EC172BC0
:10FD1000EE85104619468DED007BFCF7F7FE0028B6
:10FD20005FD00022002300204FF6FF71C5E90A01D1
:10FD3000C5E90C23C5E90E23C5E91001C5E9122365
:10FD4000C5E91423FFF726F972484FF47A7105B01C
:10FD5000BDE8F04F06F018B8B5F844204FF6FF7331
:10FD60009A424FF000040ED000224FF6FF73C5E90F
:10FD700010232146002200238020C5E91223C5E973
:10FD80001423FEF747FF42464B4640464946FCF7E0
:10FD9000BDFE0028A1D1002C9FD195F8E830002BA2
:10FDA000D2D032E1FEF770FEA1E7FEF7A3FEA5E791
:10FDB0005A4CB4F83032362B07D9FEF789FFB4F825
:10FDC0003062A885352E9ED99EE70020F7E7FEF722
:10FDD0005BFE85ED0C0BFEF78DFEAE8585ED0E0B03
:10FDE00092E795F8E830002B40F00F8195F8EB3062
:10FDF000042B40F0A981B5F844804FF6FF77B84551
:10FE000000F0FF803046FCF77DFB39A3D3E90023E7
:10FE1000FCF7E2FB38A3D3E90023FCF7DDFBAC6A77
:10FE20002B6C362E82468B46A4EB030478D895EDD6
:10FE3000143B95ED122B95ED0E1B9DED000BFEF77F
:10FE4000FBFC4FF47A73B4FBF3F318468DED020B11
:10FE50000093FCF747FB9DED020B02460B4651EC6D
:10FE6000100BFCF7E3FC8046894602460B465046E1
:10FE70005946FCF723FE08B9D046D946254DB5F8BA
:10FE80004600FCF73FFB1AA3D3E90023FCF7A4FBD1
:10FE900019A3D3E90023FCF79FFB06460F46024651
:10FEA0000B4640464946FCF727FE08B146464F46FA
:10FEB00095F8EF0095F8ED80FCF724FB10A3D3E94B
:10FEC0000023FCF789FBC8EB0818CDE902010246C4
:10FED0000B46304639464FEA8808FCF7F9FD002802
:10FEE00000F0ED80C246009B9A453FF62DAF88E0BA
:10FEF0007B14AE47E17A843FCF16AD2F5476E03FB6
:10FF0000271763601DC7D13F3875002000080048DF
:10FF1000C43C00200800002004A8002098240020F1
:10FF2000A88DB84283D0FCF7EDFAA2A3D3E9002351
:10FF3000FCF752FB064640460F46FCF7E3FA9DA34A
:10FF4000D3E90023FCF748FB02460B46304639460E
:10FF5000FCF78AF9024621F0004343EC102B9FED99
:10FF6000861B36F03DFC57EC106B894B0022304667
:10FF70003946FCF7ADFD38B932463B46854900208D
:10FF8000FCF772F906460F4695F8F3204FF47A73A2
:10FF9000B4FBF3F39342FFF44AAF95F8F200FCF799
:10FFA000B1FA7D4B0022FCF717FB75A3D3E90023C0
:10FFB0008046894650465946FCF70EFB02460B46E2
:10FFC00040464946FCF732FC804695F8F1008946E8
:10FFD000FCF798FA02460B4640464946FCF746F9BC
:10FFE0006E4B002280468946FCF786FD002863D0D0
:10FFF0006A49002032463B46FCF760FD00283FF48A
:020000040801F1
:1000000016AF674B012283F8E820654C94F8EB307B
:10001000033BDBB2012B3FF697AE0020FFF780F8E1
:1000200000283FF491AE94F8EB30042B37D0A28D2A
:100030004FF6FF739A4200F09180B4F844209A4240
:1000400000F08C8094ED143B94ED122B94ED0E1B7C
:1000500094ED0C0BFEF7F0FB57EC106B94F8EC20D2
:10006000504B514833F8123094F8E9204FF47A712C
:100070005343594305F088FE94F8EB30042B0ED01F
:1000800094F8EA301B070AD5484B0022304639461F
:10009000FCF732FD002864D0012384F8E930002306
:1000A00084F8E830424CA4F118050FCD0FC495E850
:1000B000030084E8030047E6404649469AE795F87E
:1000C000F00095F8EEA0FCF71DFA2FA3D3E900236A
:1000D000FCF782FA04460D4602460B463046394686
:1000E000FCF700FD00287FF4FEAEA8EB0A00FCF749
:1000F00009FA32463B468046894620462946FCF7A7
:10010000B3F802460B4640464946FCF765FADDE97E
:10011000022306460F4620462946FCF7A5F802466C
:100120000B4630463946FCF781FB064650460F46E3
:10013000FCF7E8F902460B4630463946FCF796F8DC
:10014000FCF722FD8246CEE6032B7FF4FDAD164878
:1001500005F022FE00287FF454AF1EE6002600279B
:100160007CE794F8E9301F2B99D85B0095E705B040
:10017000BDE8F08FAFF30080000000000080764003
:10018000DA4886DA3EE50140271763601DC7D13F94
:1001900000806640008076400000244000005E4001
:1001A00008000020A8E304081000002000002E40F2
:1001B000480000207B14AE47E17A843F03494FF4A6
:1001C00000724FF480300BF087B800BF00000010C1
:1001D00003494FF400724FF480300BF031B900BF87
:1001E0000000001038B5424C4FF40072214605461D
:1001F00000200BF08DF93F4ADFED3F6A1368C4F829
:10020000B0319FED3E6A5368DFED3D5AC4F8B4311A
:1002100004F1190100220B7C07EE903AF8EEE77A20
:1002200027EEA67ABCEEC77A17EE103A81F8903125
:10023000F5B1FCEEE77A17EE903A0B7491F8803145
:1002400007EE903AF8EEE77A67EE867AFCEEE77A08
:1002500017EE903A81F880310B7807EE903AF8EE7D
:10026000E77A67EEA57AFCEEE77A17EE903A0B7024
:100270000132052A01F10101CDD1224BDFED226AC5
:100280009FED226ADFED225A00211A7C07EE902AA8
:10029000F8EEE77A27EEA67ABCEEC77A17EE102AB8
:1002A00083F89021F5B1FCEEE77A17EE902A1A74E4
:1002B00093F8802107EE902AF8EEE77A67EE867AC7
:1002C000FCEEE77A17EE902A83F880211A7807EE81
:1002D000902AF8EEE77A67EEA57AFCEEE77A17EE59
:1002E000902A1A700131092903F10103CDD138BDDB
:1002F0000000001070A80408F6281C3F9A99593F86
:100300006666A63F100000106666263FF6285C3F32
:100310009A99D93F08B5FFF751FF074907480822C6
:1003200034F098F830B10120FFF75CFFBDE80840D9
:10033000FFF74EBF08BD00BFB0010010BCE30408CA
:100340002C4B2D4A984230B52C4B2BDD526A2C4950
:10035000801A2C4A90FBF1F5904201FB150106DD55
:1003600093F8782193F87701C0EB42000EE0002D5E
:10037000ACBF5C191C1CA0F5F400234D94F870214F
:10038000A0F59050A842EDD994F871011C4B801A49
:10039000484390FBF3F01044FF2827DC002827DBBC
:1003A000C0B230BD52681949801A194A90FBF1F564
:1003B000904201FB150106DD93F87D2193F87C0145
:1003C000C0EB42000EE0002DACBF5C191C1CA0F578
:1003D0006710104D94F87921A0F56F50A842EDD91F
:1003E00094F87A01094B801A4843D2E7FF20D8E7F6
:1003F0000020D6E780C3C901BCFA04080000001041
:1004000040420F003F5489003F420F00F07E0E0033
:10041000AF7A4800EF7E0E002C4B2D4A984230B543
:100420002C4B2BDD526A2C49801A2C4A90FBF1F59B
:10043000904201FB150106DD93F8882193F88701AE
:10044000C0EB42000EE0002DACBF5C191C1CA0F5F7
:10045000F400234D94F88021A0F59050A842EDD9E6
:1004600094F881011C4B801A484390FBF3F0104430
:10047000FF2827DC002827DBC0B230BD52681949AD
:10048000801A194A90FBF1F5904201FB150106DD37
:1004900093F88D2193F88C01C0EB42000EE0002D03
:1004A000ACBF5C191C1CA0F56710104D94F8892195
:1004B000A0F56F50A842EDD994F88A01094B801A33
:1004C0004843D2E7FF20D8E70020D6E780C3C90120
:1004D000BCFA04080000001040420F003F5489009D
:1004E0003F420F00F07E0E00AF7A4800EF7E0E0014
:1004F0002C4B2D4A984230B52C4B2BDD526A2C499F
:10050000801A2C4A90FBF1F5904201FB150106DDA3
:1005100093F8382193F83701C0EB42000EE0002D2C
:10052000ACBF5C191C1CA0F5F400234D94F83021DD
:10053000A0F59050A842EDD994F831011C4B801AD7
:10054000484390FBF3F01044FF2827DC002827DB0A
:10055000C0B230BD52681949801A194A90FBF1F5B2
:10056000904201FB150106DD93F83D2193F83C0113
:10057000C0EB42000EE0002DACBF5C191C1CA0F5C6
:100580006710104D94F83921A0F56F50A842EDD9AD
:1005900094F83A01094B801A4843D2E7FF20D8E784
:1005A0000020D6E780C3C901BCFA0408000000108F
:1005B00040420F003F5489003F420F00F07E0E0082
:1005C000AF7A4800EF7E0E002C4B2D4A984230B592
:1005D0002C4B2BDD526A2C49801A2C4A90FBF1F5EA
:1005E000904201FB150106DD93F8482193F847017D
:1005F000C0EB42000EE0002DACBF5C191C1CA0F546
:10060000F400234D94F84021A0F59050A842EDD974
:1006100094F841011C4B801A484390FBF3F01044BE
:10062000FF2827DC002827DBC0B230BD52681949FB
:10063000801A194A90FBF1F5904201FB150106DD85
:1006400093F84D2193F84C01C0EB42000EE0002DD1
:10065000ACBF5C191C1CA0F56710104D94F8492123
:10066000A0F56F50A842EDD994F84A01094B801AC1
:100670004843D2E7FF20D8E70020D6E780C3C9016E
:10068000BCFA04080000001040420F003F548900EB
:100690003F420F00F07E0E00AF7A4800EF7E0E0062
:1006A0007C4B7D4A984270B57C4B7D4C40F38280F8
:1006B0001B6A7C4D784EC01AA84290FBF2F302FBF5
:1006C0001302D4BF23EAE37008202318082893F804
:1006D00020500CBF94F8273093F821304FEA0515CD
:1006E00006BFA5EB03135B191B015B1B534393FB75
:1006F000F6F32B44B3F5805FD4BF23EAE3734FF4E2
:1007000080534B602318082893F8A0510CBF94F82D
:10071000A73193F8A131604E4FEA051506BFA5EB4E
:1007200003135B191B015B1B534393FBF6F32B4431
:10073000B3F5805FD4BF23EAE3734FF480530B60BB
:100740002318082893F890510CBF94F8973193F828
:100750009131514E4FEA051506BFA5EB03135B1906
:100760001B015B1B534393FBF6F32B44B3F5805FF4
:10077000D4BF23EAE3734FF480538B602318082817
:100780001D7C4FEA051510D05B7C1B015B1B53439E
:10079000414A93FBF2F32B44B3F5805FD4BF23EAC5
:1007A000E3734FF48053CB6070BDE37DA5EB03137F
:1007B0002B44EBE71B683C4D374EC01AA84290FB18
:1007C000F2F302FB1302D4BF23EAE37004202318E0
:1007D000042893F829500CBF94F82C3093F82A3051
:1007E0004FEA051506BFA5EB03135B191B015B1B45
:1007F000534393FBF6F32B44B3F5805FD4BF23EA56
:10080000E3734FF480534B602318042893F8A951E5
:100810000CBF94F8AC3193F8AA311F4E4FEA05157E
:1008200006BFA5EB03135B191B015B1B534393FB33
:10083000F6F32B44B3F5805FD4BF23EAE3734FF4A0
:1008400080530B602318042893F899510CBF94F837
:100850009C3193F89A31104E4FEA051506BFA5EB6F
:1008600003135B191B015B1B534393FBF6F32B44F0
:10087000B3F5805FD4BF23EAE3734FF480538B60FA
:10088000231804285D7E4FEA051501D09B7E7CE786
:10089000237F8BE780C3C90140420F00BCFA0408E4
:1008A000000000103F5489003F4B4C00034B18B927
:1008B000187B803840B27047587AFAE70000001081
:1008C000034B803908B9197370475972704700BFDC
:1008D00000000010042818DC03292ED8DFE801F0FE
:1008E00002070C11164B034493F8A9017047144BEF
:1008F000034493F829007047114B034493F899017E
:1009000070470F4B0344587E7047032915D8DFE822
:1009100001F002070B100A4B034493F89B01704748
:10092000074B0344D87E7047054B034493F88B0173
:100930007047034B0344D87A70470020704700BFCC
:1009400000000010042818DC03292DD8DFE801F08E
:1009500002070C11154B034483F8A9217047134B70
:10096000034483F829207047104B034483F89921EE
:1009700070470E4B03445A767047032914D8DFE8BA
:1009800001F002070B10094B034483F89B217047C9
:10099000064B0344DA767047044B034483F88B21FB
:1009A0007047024B0344DA72704700BF000000102A
:1009B0000048704700000010263070473130704703
:1009C00032307047333070477FB50C2206460D46F3
:1009D0004FF4003001A90AF07FFC0E48082201A95B
:1009E00033F038FD90B90C240822294604F5003074
:1009F0000AF072FC2B68B34209D06B685A1C012ABA
:100A000004D908331C44B4F5803FEDD300242046BC
:100A100004B070BD2DAC040800BA704710B5034691
:100A2000012200200A2103B910BD03F00F0402FBCC
:100A300004001B094A43F6E710B5002203460A21C9
:100A4000104603B910BDB3FBF1F401FB143393401E
:100A5000184404322346F4E710B5012200230A218A
:100A600008B998B210BD00F00F0402FB043300096E
:100A70004A43F5E7431E9BB24FF6FD7293420AD8F4
:100A8000B0F5804F09D310F4804F0CBF4FF40040F5
:100A90004FF440407047012070470220704708B56E
:100AA0000146FFF7E7FF022804D10846FFF7B6FF2B
:100AB00080B208BD4FF6FF70002918BF0846F8E75E
:100AC00008B50146FFF7D6FF022804D10846FFF714
:100AD000B3FF80B208BD4FF6FF70002918BF08466B
:100AE000F8E7002330B51D46934202DB00238B5408
:100AF00030BDC45CFF2C04BF0024C554CC5401336A
:100B0000F2E770B50C460646FF212046154633F045
:100B1000CAFC0023AB4200DB70BDF15C0029FBD0B6
:100B2000E1540133F6E700000249202248F21000A8
:100B300006F064BFDE01002070B5064E00250124DA
:100B400016F8010B39F0ACFC0135202D0444F7D127
:100B5000204670BDDE010020F8B506460C46FFF7C2
:100B6000EBFF0138B04208D04FF0FF333B4D00217E
:100B7000184615F8017B00222DE0394D286800F554
:100B80002D70FBF765FB10220646FF21204633F04F
:100B90008AFC2968102E324601F52D71A8BF10225B
:100BA000204633F0BCFD2F4B00211A6804F11000E1
:100BB00033F079FC2C4B1B88C4F8B0302B4B1B88CE
:100BC000C4F8B4304FF0FF33C4F8B83001201FE050
:100BD0000132082A08D047FA02FC1CF0010FF7D0B6
:100BE00001308642F4D18B180831B1F5807FC0D135
:100BF0005A1C1C4D0DD12A68002104F1100033F05D
:100C000052FC0020C4E92C006FF00103C4F8B83096
:100C1000F8BD2A68C4F8B83002F1080144F218009F
:100C200003FB0100102A14BFB022302221464000ED
:100C300006F0E4FE2A6804F10E01561E00239A42D3
:100C4000D9DD31F8020F08B19E4205D1002818BF46
:100C50000133C4E92C33B9E70133F0E7DE010020AA
:100C6000386701201C230020707600206E7600205B
:100C700070B4124CD1F8B0202468A2421ADAD1F82C
:100C8000B8506B1C16D0561C0832C1F8B06004F185
:100C9000080321F8120044F21800102C05FB030091
:100CA000C1F8B46018BFB02270BC08BF3022400049
:100CB00006F0A2BE002070BC704700BF1C230020BD
:100CC0000138B0F5806F3FBFC310054AD35C00F018
:100CD00007003ABF43FA00F000F00100002070471F
:100CE000FE010020F8B5441EB4F5806F05461BD206
:100CF000124EE11004F00703775C012202FA03F3BD
:100D00003B437354E311C4F3C30031440DD100F5E8
:100D10005E5006F071FE0A4A138801331380094BB6
:100D20001A88A242D8BF1D80F8BD074E41F6104771
:100D300013FB076318440AF083FBECE7FE01002075
:100D4000707600206E760020A0950900F8B51B4E45
:100D50000024354641F6104714BB102229464FF4B3
:100D60005E5006F04BFE0134082C05F11005F3D15E
:100D7000134C002323804FF480610846FFF7A0FF47
:100D8000C8B1218000252C4616F8010B39F088FBEC
:100D90000134A4B2802C0544F6D10A4B1D80F8BD65
:100DA00007FB04F000F519201022294600F5B46075
:100DB0000AF092FAD7E70139DFD1E3E7FE0100201C
:100DC0006E7600207076002038B5064C54F831302D
:100DD00004EBC104984723790078184063791841DF
:100DE000C0B238BD0001002010B500210446FFF755
:100DF000EBFF48B194F8280094F82730000240EA4D
:100E0000034094F82930184310BD000070B50A4C17
:100E100054F83130154604EBC10498472279037821
:100E200023EA0203037025B1627905FA02F2134343
:100E30000370284670BD00BF0001002038B54A1E6F
:100E40006FF07F439A4238BF0C4605462ABF4FF4E5
:100E5000B054012200220021FFF7D8FF230C64BA0E
:100E600085F827302C8538BD30B4441E15467F2CBC
:100E70001A46294408DC382303FB045000F55E5071
:100E800030BC103006F0BABD8138C41124013823BB
:100E900003FB004404F51B2404F5E074601930BC26
:100EA0000AF01ABA10B50C4600223823FFF7DCFF0F
:100EB000237E6069002B14BF022301232376FFF7F2
:100EC000ADFD60612069FFF7A9FD2061608CFFF72F
:100ED000E6FD6084208CFFF7E2FD002384F83830C3
:100EE0004FF0FF33E36394F837302084152B84BF31
:100EF0000A2384F8373010BD2DE9F84F0B7E013BF3
:100F000018BF01230B76054648690C46FFF794FD90
:100F100060612069FFF790FD2061608CFFF7D0FDD4
:100F20006084208CFFF7CCFD6B1E7F2B208421DC9E
:100F3000382243F29070214602FB030006F05CFD6C
:100F40000546237E6069002B14BF0223012323760C
:100F5000FFF764FD60612069FFF760FD2061608C30
:100F6000FFF79DFD6084208CFFF799FD20842846C3
:100F7000BDE8F88FA5F18103DD112D0105F5F625FA
:100F8000382705F5E07507FB03554FEA253ADFF8EA
:100F90009C90EE190AF1200836134FEA0838B6EB98
:100FA000253F4FF480524946404618BFC5EB0637EF
:100FB0000AF092F9C5F30B003A462146484433F053
:100FC000AEFB40460AF00EFA70B34FF0000B09EB8F
:100FD0000B0108EB0B000AF0CFF9054620B30BF527
:100FE000807BBBF5805FF2D1B245AAD020363603B4
:100FF0000E495A4630460AF06FF90C48C7F13802DC
:10100000E11933F08CFB30460AF0ECF960B10027AF
:1010100009EB0701F0190AF0AFF928B107F580775D
:10102000B7F5805FF4D18CE700258AE7142900101A
:10103000014BD868704700BFCC020020012805D0C2
:10104000022806D040B9054B18687047034B586812
:101050007047024B9868704700207047CC02002010
:101060000C4B10B599681A680A44596820F07F4003
:101070000A4440F0807000211033914201DB0020CF
:1010800010BD53F83140844201D00131F5E7012011
:10109000F6E700BFCC0200202DE9F843504B0E4686
:1010A000D3E901C1054618684718674407F1FF3EB8
:1010B00000221C46BA4217DB337D012B40F08680AC
:1010C0000CF1010363603069FFF7A6FCFFF7A6FC93
:1010D000BB1C04EBC30244F833009580327D40EA28
:1010E000026044F8330027E0B3F81490A94534D1E6
:1010F000951C337D54F83570B3EB176F4FEA1762C8
:101100000ED0012A1AD0022A1CD00AB90138206058
:10111000012B1AD0022B1CD013B923680133236092
:101120003069FFF779FCFFF779FC44F83500337D2F
:1011300040EA036044F83500BDE8F8830CF1FF3263
:101140006260E5E70139A160E2E76368013363604B
:10115000E6E7A3680133A360E2E7724502F1010804
:1011600031DAA9452FDAB3F81C90A9452BDD337D80
:10117000012B1FD10CF101036360101DC000AEEB09
:101180000202A0F10801D2002144204433F072F998
:101190003069FFF741FCFFF741FC08F1020804EB5E
:1011A000C80344F838009D80337D40EA036044F86A
:1011B0003800C1E713B901302060DEE7022B04BF1D
:1011C0000131A160D9E70833424673E713B9013012
:1011D000206078E7022B04BF0131A16073E700BFF4
:1011E000CC0200201A4BF0B4D3E901761D68A9198E
:1011F00039444FF0000C03F114028C4501DBF0BCC4
:10120000704732F83C4084421FD10CF1020053F881
:101210003040240E012C0DD1013F5F604A1EA2EB2D
:101220000C0203EBC001F0BCD200083103EBC0009C
:1012300033F075BA1CB9013D42F8145CEEE7022C9C
:1012400004BF06F1FF369E60E8E70CF1010CD4E71D
:10125000CC020020027D0369012A08BF43F04073DD
:10126000184670470D4B10B599681A680A445968BA
:1012700000200A4403F11401904208DBB0F5806FAE
:1012800017BF03EBC00300209889013004E031F858
:10129000304001308442EFD010BD00BFCC020020AE
:1012A0000D4BDB68002B10B50C4606DC2022FF211D
:1012B000204633F0F8F8002010BD01383E28F5D85C
:1012C00000B242F68873202203EB401006F096FB32
:1012D0000028EBD0F0E700BFCC02002001383E2808
:1012E00038B501D9002038BD054C42F21005044440
:1012F000605DFFF7D5FF0028F4D0605DF3E700BF25
:10130000CC02002030B51E4B1A68002A87B0054673
:101310000C4605DC5A68002A02DC9B68002B16DDAF
:101320006B1EB3F5806F12D216484FF0180113FBF5
:1013300001001822214609F0CFFF2069A561FFF7BF
:101340006BFBFFF76BFB2061012007B030BD092369
:101350002361FF23E3754FF0FF33A3610A4B0B4A70
:101360001B68002503F2A2331121257501A832F074
:10137000A3FF01A810222146FFF7C3FB2846E4E79C
:10138000CC02002020760A003867012036AC040821
:10139000F0B501384B2889B00C4620D8124B1B5CA5
:1013A000EBB1124B4FF0500210FB0230502209F00B
:1013B00093FF04F10E0604F15007002536F8020FE2
:1013C00001A9FFF79FFF059B47F8043F338813B13E
:1013D0000135202DF2D12565012009B0F0BD002096
:1013E00020702065F9E700BF7E020020A0D60A0029
:1013F0002DE9F047114C91462368A26813446268B6
:10140000064688469D180027A246AF4201DB002011
:101410000EE0E37C434508BF06F1FF3656B9A08ACB
:101420004946FFF76FFF28B10AEBC70ABAF8140064
:10143000BDE8F08701370834E7E700BFCC020020A1
:101440002DE9F74F344C00921F46A26823689DF89F
:101450003090134462684FF0FF3603EB020B0546F1
:101460008A4604EBC00809EB06035D4508DB002E45
:101470004FDB04EBC6043946A08AFFF743FF3AE08E
:10148000D8F8102022F07F4151453CD16FF07F41C8
:101490008A4503D00099B1EB126F34D1B8F814002B
:1014A000B9F1000F33D02268002A05DC6268002AF7
:1014B00002DCA268002A10DD421EB2F5806F0CD259
:1014C0001822504300F52720012207F1170100F2EE
:1014D0001F60019309F000FF019BFA7DD1070ED434
:1014E000C2F340029A420AD104EBC5043946A08AED
:1014F000FFF708FF2E46304603B0BDE8F08F36EA0E
:10150000260628BF2E46013508F10808ADE7394602
:10151000EEE74FF0FF36EEE7CC02002007B5009370
:1015200013460A4601460020FFF78AFF03B000BDBC
:101530002DE9F74F0B690093824618460E46FFF7D8
:101540007BFA18230AF1FF325A4302F5072202F50B
:10155000C464FFF761FA002C2346B8BF04F6FF739A
:101560004FEA233B12F5C762DFF8D88030610BF1F8
:10157000200748BF02F6FF723F03BBEB223F4FEA52
:10158000223541464FF48052384614BFC4EB05392A
:101590004FF0180909F0A0FE6242C2F30B02C4F337
:1015A0000B0058BF504231464A46404433F0B7F82A
:1015B000384609F017FF28B90020009B336103B0BB
:1015C000BDE8F08F002208EB0201B818019209F083
:1015D000D3FE0028F0D0019A02F58072B2F5805F48
:1015E000F1D1AB451ED020352D031649284609F010
:1015F00073FE1448C9F1180206EB090133F08FF8A5
:10160000284609F0EFFE0028D6D0002408EB04019C
:10161000281909F0B1FE0028CED004F58074B4F585
:10162000805FF3D13378FF2B02D0337DFF2B04D1C1
:101630005046FFF7D7FD0120BFE731465046FFF780
:101640002BFDF8E71429001030B50546B7B001248A
:1016500001A92046FFF79CFE48B10DF112020023BC
:1016600032F8021FA94206D00133202BF8D10134F1
:101670004D2CEDD1002037B030BD07B504220DEB65
:101680000201E82006F0BAF90198FFF7C5F903B0A6
:101690005DF804EBFFF7C2B907B5FFF7CDF9FFF727
:1016A000BBF9042201900DEB0201E82006F0A4F939
:1016B00003B000BD10B5002304460146036043603B
:1016C00003720822E02006F099F9214620460822FC
:1016D000BDE81040FFF705BA70B50C46164600216C
:1016E0001122054632F0DFFE11220021204632F0A1
:1016F000DAFE2946102247F2405006F07FF9102208
:1017000029462846FFF7EDF9214647F2505006F0EA
:1017100075F9214620461022FFF7E3F931460122F0
:10172000BDE8704047F2185006F068B938B5044675
:1017300047F290534FF03800382211FB00300D462D
:10174000214606F05BF9237E6069002B14BF02235B
:1017500001232376FFF762F960612069FFF75EF9E4
:101760002061608CFFF79BF96084208CFFF797F96C
:10177000208485B1012D14BF0023032384F8383061
:101780004FF0FF33E36394F83730152B84BF0A23FF
:1017900084F8373038BD0123F0E738B50B7E013BC4
:1017A00018BF01230376044648690D46FFF744F944
:1017B00060612869FFF740F92061688CFFF780F9C4
:1017C0006084288CFFF77CF9208438BDF0B591B097
:1017D00005460C4603466E4600F1380718685968FE
:1017E000324603C20833BB421646F7D12946684643
:1017F000FFF7D3FF47F290534FF0380214FB02304B
:101800006946382206F0F8F811B0F0BD1FB5102275
:10181000694648F2600006F0F1F89DF80F30042B9D
:101820009EBF024B50221A6005B000BD1C23002051
:1018300013B50C466946FFF7C7F838B100F500301C
:10184000019A2146083009F047FD012002B010BD81
:101850007FB50E46694604461546FFF7B5F8F8B958
:1018600002A94FF0FF30FFF7AFF8E0B1039B01335F
:1018700019D105F108030344B3F5803F13D2CDE934
:10188000004500F5003408226946204609F0D8FDDD
:101890002A46314604F1080009F0D2FD012003E098
:1018A000019BAB42EDD0002004B070BD10B50146E5
:1018B0000446052241F2724006F0A0F828B12379CF
:1018C0000A2B01D90523237110BD0223E370FBE726
:1018D00038B5014604466022802006F08FF80546A0
:1018E00078B12088FFF7B8F820806088FFF7B4F857
:1018F0006080A088FFF7B0F8A080E088FFF7ACF820
:10190000E080284638BD00003038C0B209289ABFB0
:10191000024B33F810000020704700BFCA010020BE
:1019200013B5B1F5004F0446ADF806100BD0FFF724
:10193000EBFFB0F5004F06D0030419D4013880B294
:10194000B0F5806F14D3303CE4B2092C10D804F504
:101950006A50123002220DF10601400006F04CF8E8
:10196000044BBDF8062023F81420012002B010BD5E
:101970000020FBE7CA0100200420704713B50622AF
:101980000446694647F2195006F038F8F0B19DF860
:10199000000010F001004FF0000317D0236018463C
:1019A0000A2102AB03EB6003C24313F8053C02F0CB
:1019B00001029200134103F00F030F2B06D022689F
:1019C000013001FB023306282360EAD102B010BDCA
:1019D00090F8303031B903F0FC038A40134380F8AB
:1019E0003030704703F0F3030221F6E7003990F836
:1019F000300018BF01214900084100F00300704782
:101A000007B504220DEB02014FF4C04005F0F6FFCC
:101A100004220DEB0201094832F01CFD462230B9C8
:101A2000074946F2040005F0E9FF03B000BD044891
:101A3000002103B05DF804EB32F035BD3BAC040887
:101A4000840100200028064B04DB442828BF4420E2
:101A5000185C7047B3F84400013000B2704700BF13
:101A600084010020024BD3F8B800FFF7EBBF00BFA2
:101A70008C3B0020064AD2F8B81008B50846FFF79C
:101A8000E1FF0029A4BF083032F9100008BD00BFF3
:101A90008C3B0020031E074A08DB442B28BF44234D
:101AA000D154054B01221A70084670474B1EA2F80C
:101AB0004430F6E7840100206C76002037B50D4DE8
:101AC0002C78A4B104220C4B01930DEB02014FF4CE
:101AD000C04005F091FF38B10849462246F20400A3
